:1000000009C0A5C0A4C0A3C0A2C0A1C0A0C09FC079
:10001000FFC09DC011241FBECFE9CDBF10E0A0E6F8
:10002000B0E0EEE5F2E002C005900D92A636B10711
:10003000D9F720E0A6E6B0E001C01D92A937B207CB
:10004000E1F700E401BD789401D007C178948DEC0C
:100050009BEA9093670080936600B89AB99ABA9A1F
:1000600004E610E0CED04091700050917100609194
:10007000720070917300452B462B472B41F48093FF
:10008000700090937100A0937200B09373000A9770
:10009000A109B10940917000509171006091720006
:1000A0007091730084179507A607B707B8F01092F0
:1000B00070001092710010927200109273006EE640
:1000C00070E084E690E065D06CE670E082E690E057
:1000D00060D06AE670E080E690E05BD080916800D6
:1000E0009091690001969093690080936800B8012F
:1000F000A0D001962091640030916500281739073F
:1001000000F1C09A8091680090916900B80191D087
:10011000019620916200309163002817390798F00A
:10012000C19A8091680090916900B80182D00196CF
:1001300020916000309161002817390730F0C29A91
:1001400091CFC098DFCFC198ECCFC2988BCF58CF5A
:100150008091660090916700892B31F480E094EFE4
:10016000909367008093660020916600309167004D
:10017000C901817099279195819591098827947B70
:100180003695279582279327909367008093660082
:1001900008950F931F93CF93DF93EC018B01D8DF6A
:1001A000883823E1920718F5D3DF8071992791955C
:1001B00081959109F8019183808388819981F80163
:1001C00020813181820F931F18161906BCF4998380
:1001D0008883888199818536910524F084E690E0B2
:1001E00099838883DF91CF911F910F910895813674
:1001F0009A4E18F3ADDF80719927DCCF81E090E053
:10020000E6CFE4E7F89481919191A191B19118958D
:10021000EF93EFB7EF930F93E4E700810D5E02C019
:1002200000810F4F0193E0F70F91EF91EFBFEF9136
:100230001895AA1BBB1B51E107C0AA1FBB1FA6171D
:10024000B70710F0A61BB70B881F991F5A95A9F77F
:0E02500080959095BC01CD010895F894FFCFE4
:06025E0001000100010097
:00000001FF
